{
  "_format": "hh-sol-artifact-1",
  "contractName": "TenderManagementSystem",
  "sourceName": "contracts/TenderManagementSystem.sol",
  "abi": [
    {
      "inputs": [],
      "stateMutability": "nonpayable",
      "type": "constructor"
    },
    {
      "anonymous": false,
      "inputs": [
        {
          "indexed": false,
          "internalType": "uint256[]",
          "name": "tenderIds",
          "type": "uint256[]"
        }
      ],
      "name": "AllTendersDisplayed",
      "type": "event"
    },
    {
      "anonymous": false,
      "inputs": [
        {
          "indexed": false,
          "internalType": "uint256",
          "name": "tenderId",
          "type": "uint256"
        },
        {
          "indexed": false,
          "internalType": "address",
          "name": "bidder",
          "type": "address"
        },
        {
          "indexed": false,
          "internalType": "uint256",
          "name": "estimatedCompletionTime",
          "type": "uint256"
        },
        {
          "indexed": false,
          "internalType": "uint256",
          "name": "bidAmount",
          "type": "uint256"
        }
      ],
      "name": "BidPlaced",
      "type": "event"
    },
    {
      "anonymous": false,
      "inputs": [
        {
          "indexed": false,
          "internalType": "uint256",
          "name": "id",
          "type": "uint256"
        },
        {
          "indexed": false,
          "internalType": "address",
          "name": "winner",
          "type": "address"
        }
      ],
      "name": "TenderClosed",
      "type": "event"
    },
    {
      "anonymous": false,
      "inputs": [
        {
          "indexed": false,
          "internalType": "uint256",
          "name": "id",
          "type": "uint256"
        },
        {
          "indexed": false,
          "internalType": "string",
          "name": "title",
          "type": "string"
        },
        {
          "indexed": false,
          "internalType": "string",
          "name": "description",
          "type": "string"
        },
        {
          "indexed": false,
          "internalType": "uint256",
          "name": "deadline",
          "type": "uint256"
        },
        {
          "indexed": false,
          "internalType": "uint256",
          "name": "minimumBudget",
          "type": "uint256"
        },
        {
          "indexed": false,
          "internalType": "uint256",
          "name": "estimatedCompletionTime",
          "type": "uint256"
        }
      ],
      "name": "TenderIssued",
      "type": "event"
    },
    {
      "inputs": [
        {
          "internalType": "uint256",
          "name": "",
          "type": "uint256"
        },
        {
          "internalType": "uint256",
          "name": "",
          "type": "uint256"
        }
      ],
      "name": "allBidders",
      "outputs": [
        {
          "internalType": "address",
          "name": "bidder",
          "type": "address"
        },
        {
          "internalType": "uint256",
          "name": "bidAmount",
          "type": "uint256"
        },
        {
          "internalType": "uint256",
          "name": "estimatedCompletionTime",
          "type": "uint256"
        }
      ],
      "stateMutability": "view",
      "type": "function"
    },
    {
      "inputs": [
        {
          "internalType": "uint256",
          "name": "",
          "type": "uint256"
        }
      ],
      "name": "allTenderIds",
      "outputs": [
        {
          "internalType": "uint256",
          "name": "",
          "type": "uint256"
        }
      ],
      "stateMutability": "view",
      "type": "function"
    },
    {
      "inputs": [
        {
          "internalType": "uint256",
          "name": "_tenderId",
          "type": "uint256"
        }
      ],
      "name": "closeTender",
      "outputs": [],
      "stateMutability": "nonpayable",
      "type": "function"
    },
    {
      "inputs": [
        {
          "internalType": "uint256",
          "name": "",
          "type": "uint256"
        },
        {
          "internalType": "uint256",
          "name": "",
          "type": "uint256"
        }
      ],
      "name": "eligibleBidders",
      "outputs": [
        {
          "internalType": "address",
          "name": "bidder",
          "type": "address"
        },
        {
          "internalType": "uint256",
          "name": "bidAmount",
          "type": "uint256"
        },
        {
          "internalType": "uint256",
          "name": "estimatedCompletionTime",
          "type": "uint256"
        }
      ],
      "stateMutability": "view",
      "type": "function"
    },
    {
      "inputs": [
        {
          "internalType": "uint256",
          "name": "",
          "type": "uint256"
        },
        {
          "internalType": "address",
          "name": "",
          "type": "address"
        }
      ],
      "name": "hasBid",
      "outputs": [
        {
          "internalType": "bool",
          "name": "",
          "type": "bool"
        }
      ],
      "stateMutability": "view",
      "type": "function"
    },
    {
      "inputs": [
        {
          "internalType": "string",
          "name": "_title",
          "type": "string"
        },
        {
          "internalType": "string",
          "name": "_description",
          "type": "string"
        },
        {
          "internalType": "uint256",
          "name": "_deadline",
          "type": "uint256"
        },
        {
          "internalType": "uint256",
          "name": "_minimumBudget",
          "type": "uint256"
        },
        {
          "internalType": "uint256",
          "name": "_estimatedCompletionTime",
          "type": "uint256"
        }
      ],
      "name": "issueTender",
      "outputs": [],
      "stateMutability": "nonpayable",
      "type": "function"
    },
    {
      "inputs": [],
      "name": "manager",
      "outputs": [
        {
          "internalType": "address",
          "name": "",
          "type": "address"
        }
      ],
      "stateMutability": "view",
      "type": "function"
    },
    {
      "inputs": [
        {
          "internalType": "uint256",
          "name": "_tenderId",
          "type": "uint256"
        },
        {
          "internalType": "uint256",
          "name": "_estimatedCompletionTime",
          "type": "uint256"
        },
        {
          "internalType": "uint256",
          "name": "_bidAmount",
          "type": "uint256"
        }
      ],
      "name": "placeBid",
      "outputs": [],
      "stateMutability": "nonpayable",
      "type": "function"
    },
    {
      "inputs": [],
      "name": "tenderCount",
      "outputs": [
        {
          "internalType": "uint256",
          "name": "",
          "type": "uint256"
        }
      ],
      "stateMutability": "view",
      "type": "function"
    },
    {
      "inputs": [
        {
          "internalType": "uint256",
          "name": "",
          "type": "uint256"
        }
      ],
      "name": "tenders",
      "outputs": [
        {
          "internalType": "uint256",
          "name": "id",
          "type": "uint256"
        },
        {
          "internalType": "string",
          "name": "title",
          "type": "string"
        },
        {
          "internalType": "string",
          "name": "description",
          "type": "string"
        },
        {
          "internalType": "uint256",
          "name": "deadline",
          "type": "uint256"
        },
        {
          "internalType": "uint256",
          "name": "minimumBudget",
          "type": "uint256"
        },
        {
          "internalType": "uint256",
          "name": "estimatedCompletionTime",
          "type": "uint256"
        },
        {
          "internalType": "enum TenderManagementSystem.TenderStatus",
          "name": "status",
          "type": "uint8"
        },
        {
          "internalType": "address",
          "name": "winner",
          "type": "address"
        }
      ],
      "stateMutability": "view",
      "type": "function"
    },
    {
      "inputs": [
        {
          "internalType": "uint256",
          "name": "_tenderId",
          "type": "uint256"
        }
      ],
      "name": "viewAllBidders",
      "outputs": [
        {
          "components": [
            {
              "internalType": "address",
              "name": "bidder",
              "type": "address"
            },
            {
              "internalType": "uint256",
              "name": "bidAmount",
              "type": "uint256"
            },
            {
              "internalType": "uint256",
              "name": "estimatedCompletionTime",
              "type": "uint256"
            }
          ],
          "internalType": "struct TenderManagementSystem.Bid[]",
          "name": "",
          "type": "tuple[]"
        }
      ],
      "stateMutability": "view",
      "type": "function"
    },
    {
      "inputs": [],
      "name": "viewAllTenders",
      "outputs": [
        {
          "internalType": "uint256[]",
          "name": "",
          "type": "uint256[]"
        },
        {
          "components": [
            {
              "internalType": "uint256",
              "name": "id",
              "type": "uint256"
            },
            {
              "internalType": "string",
              "name": "title",
              "type": "string"
            },
            {
              "internalType": "string",
              "name": "description",
              "type": "string"
            },
            {
              "internalType": "uint256",
              "name": "deadline",
              "type": "uint256"
            },
            {
              "internalType": "uint256",
              "name": "minimumBudget",
              "type": "uint256"
            },
            {
              "internalType": "uint256",
              "name": "estimatedCompletionTime",
              "type": "uint256"
            },
            {
              "internalType": "enum TenderManagementSystem.TenderStatus",
              "name": "status",
              "type": "uint8"
            },
            {
              "internalType": "address",
              "name": "winner",
              "type": "address"
            }
          ],
          "internalType": "struct TenderManagementSystem.Tender[]",
          "name": "",
          "type": "tuple[]"
        }
      ],
      "stateMutability": "view",
      "type": "function"
    },
    {
      "inputs": [
        {
          "internalType": "uint256",
          "name": "_tenderId",
          "type": "uint256"
        }
      ],
      "name": "viewEligibleBidders",
      "outputs": [
        {
          "components": [
            {
              "internalType": "address",
              "name": "bidder",
              "type": "address"
            },
            {
              "internalType": "uint256",
              "name": "bidAmount",
              "type": "uint256"
            },
            {
              "internalType": "uint256",
              "name": "estimatedCompletionTime",
              "type": "uint256"
            }
          ],
          "internalType": "struct TenderManagementSystem.Bid[]",
          "name": "",
          "type": "tuple[]"
        }
      ],
      "stateMutability": "view",
      "type": "function"
    }
  ],
  "bytecode": "0x608060405234801561001057600080fd5b50336000806101000a81548173ffffffffffffffffffffffffffffffffffffffff021916908373ffffffffffffffffffffffffffffffffffffffff16021790555061219d806100606000396000f3fe608060405234801561001057600080fd5b50600436106100ce5760003560e01c80635e62be251161008c578063a798af7811610066578063a798af7814610240578063ac0302511461025f578063c06fdcc61461027b578063e7ac32c9146102ab576100ce565b80635e62be25146101c2578063810374aa146101de578063a70f50591461020e576100ce565b8062cda3da146100d35780631f058776146100ef57806327224eb21461010d578063449e88121461013d578063465e1def1461016d578063481c6a75146101a4575b600080fd5b6100ed60048036038101906100e89190611219565b6102dd565b005b6100f761049c565b6040516101049190611255565b60405180910390f35b61012760048036038101906101229190611219565b6104a2565b60405161013491906113b1565b60405180910390f35b610157600480360381019061015291906113ff565b61057e565b604051610164919061145a565b60405180910390f35b61018760048036038101906101829190611219565b6105ad565b60405161019b98979695949392919061158b565b60405180910390f35b6101ac610732565b6040516101b99190611617565b60405180910390f35b6101dc60048036038101906101d79190611632565b610756565b005b6101f860048036038101906101f39190611219565b610ad7565b6040516102059190611255565b60405180910390f35b61022860048036038101906102239190611685565b610afb565b604051610237939291906116c5565b60405180910390f35b610248610b62565b60405161025692919061197d565b60405180910390f35b61027960048036038101906102749190611ae9565b610e73565b005b61029560048036038101906102909190611219565b61101f565b6040516102a291906113b1565b60405180910390f35b6102c560048036038101906102c09190611685565b6110fb565b6040516102d4939291906116c5565b60405180910390f35b60008054906101000a900473ffffffffffffffffffffffffffffffffffffffff1673ffffffffffffffffffffffffffffffffffffffff163373ffffffffffffffffffffffffffffffffffffffff161461036b576040517f08c379a000000000000000000000000000000000000000000000000000000000815260040161036290611c0e565b60405180910390fd5b80600060018111156103805761037f611505565b5b6003600083815260200190815260200160002060060160009054906101000a900460ff1660018111156103b6576103b5611505565b5b146103f6576040517f08c379a00000000000000000000000000000000000000000000000000000000081526004016103ed90611c7a565b60405180910390fd5b600060036000848152602001908152602001600020905060018160060160006101000a81548160ff0219169083600181111561043557610434611505565b5b02179055507f1ff2afa711f8674f62f22f82dc0ba97e8f41945fe87c2a15e8a294537e75cf29838260060160019054906101000a900473ffffffffffffffffffffffffffffffffffffffff1660405161048f929190611c9a565b60405180910390a1505050565b60015481565b606060056000838152602001908152602001600020805480602002602001604051908101604052809291908181526020016000905b8282101561057357838290600052602060002090600302016040518060600160405290816000820160009054906101000a900473ffffffffffffffffffffffffffffffffffffffff1673ffffffffffffffffffffffffffffffffffffffff1673ffffffffffffffffffffffffffffffffffffffff16815260200160018201548152602001600282015481525050815260200190600101906104d7565b505050509050919050565b60046020528160005260406000206020528060005260406000206000915091509054906101000a900460ff1681565b60036020528060005260406000206000915090508060000154908060010180546105d690611cf2565b80601f016020809104026020016040519081016040528092919081815260200182805461060290611cf2565b801561064f5780601f106106245761010080835404028352916020019161064f565b820191906000526020600020905b81548152906001019060200180831161063257829003601f168201915b50505050509080600201805461066490611cf2565b80601f016020809104026020016040519081016040528092919081815260200182805461069090611cf2565b80156106dd5780601f106106b2576101008083540402835291602001916106dd565b820191906000526020600020905b8154815290600101906020018083116106c057829003601f168201915b5050505050908060030154908060040154908060050154908060060160009054906101000a900460ff16908060060160019054906101000a900473ffffffffffffffffffffffffffffffffffffffff16905088565b60008054906101000a900473ffffffffffffffffffffffffffffffffffffffff1681565b826000600181111561076b5761076a611505565b5b6003600083815260200190815260200160002060060160009054906101000a900460ff1660018111156107a1576107a0611505565b5b146107e1576040517f08c379a00000000000000000000000000000000000000000000000000000000081526004016107d890611c7a565b60405180910390fd5b6004600085815260200190815260200160002060003373ffffffffffffffffffffffffffffffffffffffff1673ffffffffffffffffffffffffffffffffffffffff16815260200190815260200160002060009054906101000a900460ff161561087f576040517f08c379a000000000000000000000000000000000000000000000000000000000815260040161087690611d6f565b60405180910390fd5b7f51db8e23b3f4479b162fd48823b8402895442b8f6cfd94f66239391881ec7b6f843385856040516108b49493929190611d8f565b60405180910390a1600060405180606001604052803373ffffffffffffffffffffffffffffffffffffffff1681526020018481526020018581525090506006600086815260200190815260200160002081908060018154018082558091505060019003906000526020600020906003020160009091909190915060008201518160000160006101000a81548173ffffffffffffffffffffffffffffffffffffffff021916908373ffffffffffffffffffffffffffffffffffffffff16021790555060208201518160010155604082015181600201555050600360008681526020019081526020016000206004015483101580156109c7575060036000868152602001908152602001600020600501548410155b15610a67576005600086815260200190815260200160002081908060018154018082558091505060019003906000526020600020906003020160009091909190915060008201518160000160006101000a81548173ffffffffffffffffffffffffffffffffffffffff021916908373ffffffffffffffffffffffffffffffffffffffff160217905550602082015181600101556040820151816002015550505b60016004600087815260200190815260200160002060003373ffffffffffffffffffffffffffffffffffffffff1673ffffffffffffffffffffffffffffffffffffffff16815260200190815260200160002060006101000a81548160ff0219169083151502179055505050505050565b60028181548110610ae757600080fd5b906000526020600020016000915090505481565b60056020528160005260406000208181548110610b1757600080fd5b9060005260206000209060030201600091509150508060000160009054906101000a900473ffffffffffffffffffffffffffffffffffffffff16908060010154908060020154905083565b60608060006002805480602002602001604051908101604052809291908181526020018280548015610bb357602002820191906000526020600020905b815481526020019060010190808311610b9f575b505050505090506000815167ffffffffffffffff811115610bd757610bd66119be565b5b604051908082528060200260200182016040528015610c1057816020015b610bfd611162565b815260200190600190039081610bf55790505b50905060005b8251811015610e665760036000848381518110610c3657610c35611dd4565b5b602002602001015181526020019081526020016000206040518061010001604052908160008201548152602001600182018054610c7290611cf2565b80601f0160208091040260200160405190810160405280929190818152602001828054610c9e90611cf2565b8015610ceb5780601f10610cc057610100808354040283529160200191610ceb565b820191906000526020600020905b815481529060010190602001808311610cce57829003601f168201915b50505050508152602001600282018054610d0490611cf2565b80601f0160208091040260200160405190810160405280929190818152602001828054610d3090611cf2565b8015610d7d5780601f10610d5257610100808354040283529160200191610d7d565b820191906000526020600020905b815481529060010190602001808311610d6057829003601f168201915b505050505081526020016003820154815260200160048201548152602001600582015481526020016006820160009054906101000a900460ff166001811115610dc957610dc8611505565b5b6001811115610ddb57610dda611505565b5b81526020016006820160019054906101000a900473ffffffffffffffffffffffffffffffffffffffff1673ffffffffffffffffffffffffffffffffffffffff1673ffffffffffffffffffffffffffffffffffffffff1681525050828281518110610e4857610e47611dd4565b5b60200260200101819052508080610e5e90611e32565b915050610c16565b5081819350935050509091565b60008054906101000a900473ffffffffffffffffffffffffffffffffffffffff1673ffffffffffffffffffffffffffffffffffffffff163373ffffffffffffffffffffffffffffffffffffffff1614610f01576040517f08c379a0000000000000000000000000000000000000000000000000000000008152600401610ef890611c0e565b60405180910390fd5b60016000815480929190610f1490611e32565b919050555060006003600060015481526020019081526020016000209050600154816000018190555085816001019081610f4e9190612026565b5084816002019081610f609190612026565b5083816003018190555081816005018190555082816004018190555060008160060160006101000a81548160ff02191690836001811115610fa457610fa3611505565b5b0217905550600260015490806001815401808255809150506001900390600052602060002001600090919091909150557fcbd33b8432aa41808e08c0e6e6184536d4ddf08dc41000d4933a90d170e33f7e600154878787878760405161100f969594939291906120f8565b60405180910390a1505050505050565b606060066000838152602001908152602001600020805480602002602001604051908101604052809291908181526020016000905b828210156110f057838290600052602060002090600302016040518060600160405290816000820160009054906101000a900473ffffffffffffffffffffffffffffffffffffffff1673ffffffffffffffffffffffffffffffffffffffff1673ffffffffffffffffffffffffffffffffffffffff1681526020016001820154815260200160028201548152505081526020019060010190611054565b505050509050919050565b6006602052816000526040600020818154811061111757600080fd5b9060005260206000209060030201600091509150508060000160009054906101000a900473ffffffffffffffffffffffffffffffffffffffff16908060010154908060020154905083565b604051806101000160405280600081526020016060815260200160608152602001600081526020016000815260200160008152602001600060018111156111ac576111ab611505565b5b8152602001600073ffffffffffffffffffffffffffffffffffffffff1681525090565b6000604051905090565b600080fd5b600080fd5b6000819050919050565b6111f6816111e3565b811461120157600080fd5b50565b600081359050611213816111ed565b92915050565b60006020828403121561122f5761122e6111d9565b5b600061123d84828501611204565b91505092915050565b61124f816111e3565b82525050565b600060208201905061126a6000830184611246565b92915050565b600081519050919050565b600082825260208201905092915050565b6000819050602082019050919050565b600073ffffffffffffffffffffffffffffffffffffffff82169050919050565b60006112c78261129c565b9050919050565b6112d7816112bc565b82525050565b6112e6816111e3565b82525050565b60608201600082015161130260008501826112ce565b50602082015161131560208501826112dd565b50604082015161132860408501826112dd565b50505050565b600061133a83836112ec565b60608301905092915050565b6000602082019050919050565b600061135e82611270565b611368818561127b565b93506113738361128c565b8060005b838110156113a457815161138b888261132e565b975061139683611346565b925050600181019050611377565b5085935050505092915050565b600060208201905081810360008301526113cb8184611353565b905092915050565b6113dc816112bc565b81146113e757600080fd5b50565b6000813590506113f9816113d3565b92915050565b60008060408385031215611416576114156111d9565b5b600061142485828601611204565b9250506020611435858286016113ea565b9150509250929050565b60008115159050919050565b6114548161143f565b82525050565b600060208201905061146f600083018461144b565b92915050565b600081519050919050565b600082825260208201905092915050565b60005b838110156114af578082015181840152602081019050611494565b60008484015250505050565b6000601f19601f8301169050919050565b60006114d782611475565b6114e18185611480565b93506114f1818560208601611491565b6114fa816114bb565b840191505092915050565b7f4e487b7100000000000000000000000000000000000000000000000000000000600052602160045260246000fd5b6002811061154557611544611505565b5b50565b600081905061155682611534565b919050565b600061156682611548565b9050919050565b6115768161155b565b82525050565b611585816112bc565b82525050565b6000610100820190506115a1600083018b611246565b81810360208301526115b3818a6114cc565b905081810360408301526115c781896114cc565b90506115d66060830188611246565b6115e36080830187611246565b6115f060a0830186611246565b6115fd60c083018561156d565b61160a60e083018461157c565b9998505050505050505050565b600060208201905061162c600083018461157c565b92915050565b60008060006060848603121561164b5761164a6111d9565b5b600061165986828701611204565b935050602061166a86828701611204565b925050604061167b86828701611204565b9150509250925092565b6000806040838503121561169c5761169b6111d9565b5b60006116aa85828601611204565b92505060206116bb85828601611204565b9150509250929050565b60006060820190506116da600083018661157c565b6116e76020830185611246565b6116f46040830184611246565b949350505050565b600081519050919050565b600082825260208201905092915050565b6000819050602082019050919050565b600061173483836112dd565b60208301905092915050565b6000602082019050919050565b6000611758826116fc565b6117628185611707565b935061176d83611718565b8060005b8381101561179e5781516117858882611728565b975061179083611740565b925050600181019050611771565b5085935050505092915050565b600081519050919050565b600082825260208201905092915050565b6000819050602082019050919050565b600082825260208201905092915050565b60006117f382611475565b6117fd81856117d7565b935061180d818560208601611491565b611816816114bb565b840191505092915050565b61182a8161155b565b82525050565b60006101008301600083015161184960008601826112dd565b506020830151848203602086015261186182826117e8565b9150506040830151848203604086015261187b82826117e8565b915050606083015161189060608601826112dd565b5060808301516118a360808601826112dd565b5060a08301516118b660a08601826112dd565b5060c08301516118c960c0860182611821565b5060e08301516118dc60e08601826112ce565b508091505092915050565b60006118f38383611830565b905092915050565b6000602082019050919050565b6000611913826117ab565b61191d81856117b6565b93508360208202850161192f856117c7565b8060005b8581101561196b578484038952815161194c85826118e7565b9450611957836118fb565b925060208a01995050600181019050611933565b50829750879550505050505092915050565b60006040820190508181036000830152611997818561174d565b905081810360208301526119ab8184611908565b90509392505050565b600080fd5b600080fd5b7f4e487b7100000000000000000000000000000000000000000000000000000000600052604160045260246000fd5b6119f6826114bb565b810181811067ffffffffffffffff82111715611a1557611a146119be565b5b80604052505050565b6000611a286111cf565b9050611a3482826119ed565b919050565b600067ffffffffffffffff821115611a5457611a536119be565b5b611a5d826114bb565b9050602081019050919050565b82818337600083830152505050565b6000611a8c611a8784611a39565b611a1e565b905082815260208101848484011115611aa857611aa76119b9565b5b611ab3848285611a6a565b509392505050565b600082601f830112611ad057611acf6119b4565b5b8135611ae0848260208601611a79565b91505092915050565b600080600080600060a08688031215611b0557611b046111d9565b5b600086013567ffffffffffffffff811115611b2357611b226111de565b5b611b2f88828901611abb565b955050602086013567ffffffffffffffff811115611b5057611b4f6111de565b5b611b5c88828901611abb565b9450506040611b6d88828901611204565b9350506060611b7e88828901611204565b9250506080611b8f88828901611204565b9150509295509295909350565b7f4f6e6c7920746865206d616e616765722063616e20706572666f726d2074686960008201527f7320616374696f6e000000000000000000000000000000000000000000000000602082015250565b6000611bf8602883611480565b9150611c0382611b9c565b604082019050919050565b60006020820190508181036000830152611c2781611beb565b9050919050565b7f54656e64657220697320636c6f73656400000000000000000000000000000000600082015250565b6000611c64601083611480565b9150611c6f82611c2e565b602082019050919050565b60006020820190508181036000830152611c9381611c57565b9050919050565b6000604082019050611caf6000830185611246565b611cbc602083018461157c565b9392505050565b7f4e487b7100000000000000000000000000000000000000000000000000000000600052602260045260246000fd5b60006002820490506001821680611d0a57607f821691505b602082108103611d1d57611d1c611cc3565b5b50919050565b7f596f75206861766520616c726561647920706c61636564206120626964000000600082015250565b6000611d59601d83611480565b9150611d6482611d23565b602082019050919050565b60006020820190508181036000830152611d8881611d4c565b9050919050565b6000608082019050611da46000830187611246565b611db1602083018661157c565b611dbe6040830185611246565b611dcb6060830184611246565b95945050505050565b7f4e487b7100000000000000000000000000000000000000000000000000000000600052603260045260246000fd5b7f4e487b7100000000000000000000000000000000000000000000000000000000600052601160045260246000fd5b6000611e3d826111e3565b91507fffffffffffffffffffffffffffffffffffffffffffffffffffffffffffffffff8203611e6f57611e6e611e03565b5b600182019050919050565b60008190508160005260206000209050919050565b60006020601f8301049050919050565b600082821b905092915050565b600060088302611edc7fffffffffffffffffffffffffffffffffffffffffffffffffffffffffffffffff82611e9f565b611ee68683611e9f565b95508019841693508086168417925050509392505050565b6000819050919050565b6000611f23611f1e611f19846111e3565b611efe565b6111e3565b9050919050565b6000819050919050565b611f3d83611f08565b611f51611f4982611f2a565b848454611eac565b825550505050565b600090565b611f66611f59565b611f71818484611f34565b505050565b5b81811015611f9557611f8a600082611f5e565b600181019050611f77565b5050565b601f821115611fda57611fab81611e7a565b611fb484611e8f565b81016020851015611fc3578190505b611fd7611fcf85611e8f565b830182611f76565b50505b505050565b600082821c905092915050565b6000611ffd60001984600802611fdf565b1980831691505092915050565b60006120168383611fec565b9150826002028217905092915050565b61202f82611475565b67ffffffffffffffff811115612048576120476119be565b5b6120528254611cf2565b61205d828285611f99565b600060209050601f831160018114612090576000841561207e578287015190505b612088858261200a565b8655506120f0565b601f19841661209e86611e7a565b60005b828110156120c6578489015182556001820191506020850194506020810190506120a1565b868310156120e357848901516120df601f891682611fec565b8355505b6001600288020188555050505b505050505050565b600060c08201905061210d6000830189611246565b818103602083015261211f81886114cc565b9050818103604083015261213381876114cc565b90506121426060830186611246565b61214f6080830185611246565b61215c60a0830184611246565b97965050505050505056fea2646970667358221220f3d08e4ccf7d44f82568738f083e5e6f62f2153e5e7df6cfb3d5f9266997e3f964736f6c63430008130033",
  "linkReferences": {},
  "deployedLinkReferences": {}
}