{
  "_format": "hh-sol-artifact-1",
  "contractName": "TenderManagementSystem",
  "sourceName": "contracts/TenderManagementSystem.sol",
  "abi": [
    {
      "inputs": [],
      "stateMutability": "nonpayable",
      "type": "constructor"
    },
    {
      "anonymous": false,
      "inputs": [
        {
          "indexed": false,
          "internalType": "uint256",
          "name": "tenderId",
          "type": "uint256"
        },
        {
          "indexed": false,
          "internalType": "address",
          "name": "bidder",
          "type": "address"
        },
        {
          "indexed": false,
          "internalType": "uint256",
          "name": "deadline",
          "type": "uint256"
        },
        {
          "indexed": false,
          "internalType": "uint256",
          "name": "bidAmount",
          "type": "uint256"
        }
      ],
      "name": "BidPlaced",
      "type": "event"
    },
    {
      "anonymous": false,
      "inputs": [
        {
          "indexed": false,
          "internalType": "uint256",
          "name": "id",
          "type": "uint256"
        },
        {
          "indexed": false,
          "internalType": "address",
          "name": "winner",
          "type": "address"
        }
      ],
      "name": "TenderClosed",
      "type": "event"
    },
    {
      "anonymous": false,
      "inputs": [
        {
          "indexed": false,
          "internalType": "uint256",
          "name": "id",
          "type": "uint256"
        },
        {
          "indexed": false,
          "internalType": "string",
          "name": "title",
          "type": "string"
        },
        {
          "indexed": false,
          "internalType": "string",
          "name": "description",
          "type": "string"
        },
        {
          "indexed": false,
          "internalType": "uint256",
          "name": "deadline",
          "type": "uint256"
        },
        {
          "indexed": false,
          "internalType": "uint256",
          "name": "minimumBudget",
          "type": "uint256"
        }
      ],
      "name": "TenderIssued",
      "type": "event"
    },
    {
      "inputs": [
        {
          "internalType": "uint256",
          "name": "",
          "type": "uint256"
        },
        {
          "internalType": "uint256",
          "name": "",
          "type": "uint256"
        }
      ],
      "name": "allBidders",
      "outputs": [
        {
          "internalType": "address",
          "name": "bidder",
          "type": "address"
        },
        {
          "internalType": "uint256",
          "name": "bidAmount",
          "type": "uint256"
        },
        {
          "internalType": "uint256",
          "name": "deadline",
          "type": "uint256"
        }
      ],
      "stateMutability": "view",
      "type": "function"
    },
    {
      "inputs": [
        {
          "internalType": "uint256",
          "name": "_tenderId",
          "type": "uint256"
        }
      ],
      "name": "closeTender",
      "outputs": [],
      "stateMutability": "nonpayable",
      "type": "function"
    },
    {
      "inputs": [
        {
          "internalType": "uint256",
          "name": "",
          "type": "uint256"
        },
        {
          "internalType": "uint256",
          "name": "",
          "type": "uint256"
        }
      ],
      "name": "eligibleBidders",
      "outputs": [
        {
          "internalType": "address",
          "name": "bidder",
          "type": "address"
        },
        {
          "internalType": "uint256",
          "name": "bidAmount",
          "type": "uint256"
        },
        {
          "internalType": "uint256",
          "name": "deadline",
          "type": "uint256"
        }
      ],
      "stateMutability": "view",
      "type": "function"
    },
    {
      "inputs": [
        {
          "internalType": "uint256",
          "name": "",
          "type": "uint256"
        },
        {
          "internalType": "address",
          "name": "",
          "type": "address"
        }
      ],
      "name": "hasBid",
      "outputs": [
        {
          "internalType": "bool",
          "name": "",
          "type": "bool"
        }
      ],
      "stateMutability": "view",
      "type": "function"
    },
    {
      "inputs": [
        {
          "internalType": "string",
          "name": "_title",
          "type": "string"
        },
        {
          "internalType": "string",
          "name": "_description",
          "type": "string"
        },
        {
          "internalType": "uint256",
          "name": "_deadline",
          "type": "uint256"
        },
        {
          "internalType": "uint256",
          "name": "_minimumBudget",
          "type": "uint256"
        }
      ],
      "name": "issueTender",
      "outputs": [],
      "stateMutability": "nonpayable",
      "type": "function"
    },
    {
      "inputs": [],
      "name": "manager",
      "outputs": [
        {
          "internalType": "address",
          "name": "",
          "type": "address"
        }
      ],
      "stateMutability": "view",
      "type": "function"
    },
    {
      "inputs": [
        {
          "internalType": "uint256",
          "name": "_tenderId",
          "type": "uint256"
        },
        {
          "internalType": "uint256",
          "name": "_deadline",
          "type": "uint256"
        },
        {
          "internalType": "uint256",
          "name": "_bidAmount",
          "type": "uint256"
        }
      ],
      "name": "placeBid",
      "outputs": [],
      "stateMutability": "nonpayable",
      "type": "function"
    },
    {
      "inputs": [],
      "name": "tenderCount",
      "outputs": [
        {
          "internalType": "uint256",
          "name": "",
          "type": "uint256"
        }
      ],
      "stateMutability": "view",
      "type": "function"
    },
    {
      "inputs": [
        {
          "internalType": "uint256",
          "name": "",
          "type": "uint256"
        }
      ],
      "name": "tenders",
      "outputs": [
        {
          "internalType": "uint256",
          "name": "id",
          "type": "uint256"
        },
        {
          "internalType": "string",
          "name": "title",
          "type": "string"
        },
        {
          "internalType": "string",
          "name": "description",
          "type": "string"
        },
        {
          "internalType": "uint256",
          "name": "deadline",
          "type": "uint256"
        },
        {
          "internalType": "uint256",
          "name": "minimumBudget",
          "type": "uint256"
        },
        {
          "internalType": "enum TenderManagementSystem.TenderStatus",
          "name": "status",
          "type": "uint8"
        },
        {
          "internalType": "address",
          "name": "winner",
          "type": "address"
        }
      ],
      "stateMutability": "view",
      "type": "function"
    },
    {
      "inputs": [
        {
          "internalType": "uint256",
          "name": "_tenderId",
          "type": "uint256"
        }
      ],
      "name": "viewAllBidders",
      "outputs": [
        {
          "components": [
            {
              "internalType": "address",
              "name": "bidder",
              "type": "address"
            },
            {
              "internalType": "uint256",
              "name": "bidAmount",
              "type": "uint256"
            },
            {
              "internalType": "uint256",
              "name": "deadline",
              "type": "uint256"
            }
          ],
          "internalType": "struct TenderManagementSystem.Bid[]",
          "name": "",
          "type": "tuple[]"
        }
      ],
      "stateMutability": "view",
      "type": "function"
    },
    {
      "inputs": [
        {
          "internalType": "uint256",
          "name": "_tenderId",
          "type": "uint256"
        }
      ],
      "name": "viewEligibleBidders",
      "outputs": [
        {
          "components": [
            {
              "internalType": "address",
              "name": "bidder",
              "type": "address"
            },
            {
              "internalType": "uint256",
              "name": "bidAmount",
              "type": "uint256"
            },
            {
              "internalType": "uint256",
              "name": "deadline",
              "type": "uint256"
            }
          ],
          "internalType": "struct TenderManagementSystem.Bid[]",
          "name": "",
          "type": "tuple[]"
        }
      ],
      "stateMutability": "view",
      "type": "function"
    }
  ],
  "bytecode": "0x608060405234801561001057600080fd5b50336000806101000a81548173ffffffffffffffffffffffffffffffffffffffff021916908373ffffffffffffffffffffffffffffffffffffffff160217905550611dfe806100606000396000f3fe608060405234801561001057600080fd5b50600436106100a85760003560e01c8063481c6a7511610071578063481c6a751461017d5780635e62be251461019b578063a70f5059146101b7578063c06fdcc6146101e9578063d7461f4014610219578063e7ac32c914610235576100a8565b8062cda3da146100ad5780631f058776146100c957806327224eb2146100e7578063449e881214610117578063465e1def14610147575b600080fd5b6100c760048036038101906100c2919061108b565b610267565b005b6100d1610471565b6040516100de91906110c7565b60405180910390f35b61010160048036038101906100fc919061108b565b610477565b60405161010e9190611223565b60405180910390f35b610131600480360381019061012c9190611271565b610553565b60405161013e91906112cc565b60405180910390f35b610161600480360381019061015c919061108b565b610582565b60405161017497969594939291906113fd565b60405180910390f35b610185610701565b604051610192919061147a565b60405180910390f35b6101b560048036038101906101b09190611495565b610725565b005b6101d160048036038101906101cc91906114e8565b610aa6565b6040516101e093929190611528565b60405180910390f35b61020360048036038101906101fe919061108b565b610b0d565b6040516102109190611223565b60405180910390f35b610233600480360381019061022e9190611694565b610be9565b005b61024f600480360381019061024a91906114e8565b610d5e565b60405161025e93929190611528565b60405180910390f35b60008054906101000a900473ffffffffffffffffffffffffffffffffffffffff1673ffffffffffffffffffffffffffffffffffffffff163373ffffffffffffffffffffffffffffffffffffffff16146102f5576040517f08c379a00000000000000000000000000000000000000000000000000000000081526004016102ec906117a5565b60405180910390fd5b806000600181111561030a57610309611377565b5b6002600083815260200190815260200160002060050160009054906101000a900460ff1660018111156103405761033f611377565b5b14610380576040517f08c379a000000000000000000000000000000000000000000000000000000000815260040161037790611811565b60405180910390fd5b600060026000848152602001908152602001600020905060018160050160006101000a81548160ff021916908360018111156103bf576103be611377565b5b02179055506103cd83610dc5565b8160050160016101000a81548173ffffffffffffffffffffffffffffffffffffffff021916908373ffffffffffffffffffffffffffffffffffffffff1602179055507f1ff2afa711f8674f62f22f82dc0ba97e8f41945fe87c2a15e8a294537e75cf29838260050160019054906101000a900473ffffffffffffffffffffffffffffffffffffffff16604051610464929190611831565b60405180910390a1505050565b60015481565b606060046000838152602001908152602001600020805480602002602001604051908101604052809291908181526020016000905b8282101561054857838290600052602060002090600302016040518060600160405290816000820160009054906101000a900473ffffffffffffffffffffffffffffffffffffffff1673ffffffffffffffffffffffffffffffffffffffff1673ffffffffffffffffffffffffffffffffffffffff16815260200160018201548152602001600282015481525050815260200190600101906104ac565b505050509050919050565b60036020528160005260406000206020528060005260406000206000915091509054906101000a900460ff1681565b60026020528060005260406000206000915090508060000154908060010180546105ab90611889565b80601f01602080910402602001604051908101604052809291908181526020018280546105d790611889565b80156106245780601f106105f957610100808354040283529160200191610624565b820191906000526020600020905b81548152906001019060200180831161060757829003601f168201915b50505050509080600201805461063990611889565b80601f016020809104026020016040519081016040528092919081815260200182805461066590611889565b80156106b25780601f10610687576101008083540402835291602001916106b2565b820191906000526020600020905b81548152906001019060200180831161069557829003601f168201915b5050505050908060030154908060040154908060050160009054906101000a900460ff16908060050160019054906101000a900473ffffffffffffffffffffffffffffffffffffffff16905087565b60008054906101000a900473ffffffffffffffffffffffffffffffffffffffff1681565b826000600181111561073a57610739611377565b5b6002600083815260200190815260200160002060050160009054906101000a900460ff1660018111156107705761076f611377565b5b146107b0576040517f08c379a00000000000000000000000000000000000000000000000000000000081526004016107a790611811565b60405180910390fd5b6003600085815260200190815260200160002060003373ffffffffffffffffffffffffffffffffffffffff1673ffffffffffffffffffffffffffffffffffffffff16815260200190815260200160002060009054906101000a900460ff161561084e576040517f08c379a000000000000000000000000000000000000000000000000000000000815260040161084590611906565b60405180910390fd5b7f51db8e23b3f4479b162fd48823b8402895442b8f6cfd94f66239391881ec7b6f843385856040516108839493929190611926565b60405180910390a1600060405180606001604052803373ffffffffffffffffffffffffffffffffffffffff1681526020018481526020018581525090506005600086815260200190815260200160002081908060018154018082558091505060019003906000526020600020906003020160009091909190915060008201518160000160006101000a81548173ffffffffffffffffffffffffffffffffffffffff021916908373ffffffffffffffffffffffffffffffffffffffff1602179055506020820151816001015560408201518160020155505060026000868152602001908152602001600020600401548310158015610996575060026000868152602001908152602001600020600301548410155b15610a36576004600086815260200190815260200160002081908060018154018082558091505060019003906000526020600020906003020160009091909190915060008201518160000160006101000a81548173ffffffffffffffffffffffffffffffffffffffff021916908373ffffffffffffffffffffffffffffffffffffffff160217905550602082015181600101556040820151816002015550505b60016003600087815260200190815260200160002060003373ffffffffffffffffffffffffffffffffffffffff1673ffffffffffffffffffffffffffffffffffffffff16815260200190815260200160002060006101000a81548160ff0219169083151502179055505050505050565b60046020528160005260406000208181548110610ac257600080fd5b9060005260206000209060030201600091509150508060000160009054906101000a900473ffffffffffffffffffffffffffffffffffffffff16908060010154908060020154905083565b606060056000838152602001908152602001600020805480602002602001604051908101604052809291908181526020016000905b82821015610bde57838290600052602060002090600302016040518060600160405290816000820160009054906101000a900473ffffffffffffffffffffffffffffffffffffffff1673ffffffffffffffffffffffffffffffffffffffff1673ffffffffffffffffffffffffffffffffffffffff1681526020016001820154815260200160028201548152505081526020019060010190610b42565b505050509050919050565b60008054906101000a900473ffffffffffffffffffffffffffffffffffffffff1673ffffffffffffffffffffffffffffffffffffffff163373ffffffffffffffffffffffffffffffffffffffff1614610c77576040517f08c379a0000000000000000000000000000000000000000000000000000000008152600401610c6e906117a5565b60405180910390fd5b60016000815480929190610c8a9061199a565b919050555060006002600060015481526020019081526020016000209050600154816000018190555084816001019081610cc49190611b8e565b5083816002019081610cd69190611b8e565b5082816003018190555081816004018190555060008160050160006101000a81548160ff02191690836001811115610d1157610d10611377565b5b02179055507f26b7ad09d41aadfc77d47c1d011cf24040827c26886ea681f76fed39a139136760015486868686604051610d4f959493929190611c60565b60405180910390a15050505050565b60056020528160005260406000208181548110610d7a57600080fd5b9060005260206000209060030201600091509150508060000160009054906101000a900473ffffffffffffffffffffffffffffffffffffffff16908060010154908060020154905083565b6000600180811115610dda57610dd9611377565b5b6002600084815260200190815260200160002060050160009054906101000a900460ff166001811115610e1057610e0f611377565b5b14610e50576040517f08c379a0000000000000000000000000000000000000000000000000000000008152600401610e4790611d0d565b60405180910390fd5b600060046000848152602001908152602001600020805480602002602001604051908101604052809291908181526020016000905b82821015610f2157838290600052602060002090600302016040518060600160405290816000820160009054906101000a900473ffffffffffffffffffffffffffffffffffffffff1673ffffffffffffffffffffffffffffffffffffffff1673ffffffffffffffffffffffffffffffffffffffff1681526020016001820154815260200160028201548152505081526020019060010190610e85565b5050505090506000815111610f6b576040517f08c379a0000000000000000000000000000000000000000000000000000000008152600401610f6290611d79565b60405180910390fd5b6000807fffffffffffffffffffffffffffffffffffffffffffffffffffffffffffffffff905060007fffffffffffffffffffffffffffffffffffffffffffffffffffffffffffffffff905060005b8451811015611034576000858281518110610fd757610fd6611d99565b5b60200260200101519050838160200151108061100557508381602001511480156110045750828160400151105b5b15611020578060000151945080602001519350806040015192505b50808061102c9061199a565b915050610fb9565b5082945050505050919050565b6000604051905090565b600080fd5b600080fd5b6000819050919050565b61106881611055565b811461107357600080fd5b50565b6000813590506110858161105f565b92915050565b6000602082840312156110a1576110a061104b565b5b60006110af84828501611076565b91505092915050565b6110c181611055565b82525050565b60006020820190506110dc60008301846110b8565b92915050565b600081519050919050565b600082825260208201905092915050565b6000819050602082019050919050565b600073ffffffffffffffffffffffffffffffffffffffff82169050919050565b60006111398261110e565b9050919050565b6111498161112e565b82525050565b61115881611055565b82525050565b6060820160008201516111746000850182611140565b506020820151611187602085018261114f565b50604082015161119a604085018261114f565b50505050565b60006111ac838361115e565b60608301905092915050565b6000602082019050919050565b60006111d0826110e2565b6111da81856110ed565b93506111e5836110fe565b8060005b838110156112165781516111fd88826111a0565b9750611208836111b8565b9250506001810190506111e9565b5085935050505092915050565b6000602082019050818103600083015261123d81846111c5565b905092915050565b61124e8161112e565b811461125957600080fd5b50565b60008135905061126b81611245565b92915050565b600080604083850312156112885761128761104b565b5b600061129685828601611076565b92505060206112a78582860161125c565b9150509250929050565b60008115159050919050565b6112c6816112b1565b82525050565b60006020820190506112e160008301846112bd565b92915050565b600081519050919050565b600082825260208201905092915050565b60005b83811015611321578082015181840152602081019050611306565b60008484015250505050565b6000601f19601f8301169050919050565b6000611349826112e7565b61135381856112f2565b9350611363818560208601611303565b61136c8161132d565b840191505092915050565b7f4e487b7100000000000000000000000000000000000000000000000000000000600052602160045260246000fd5b600281106113b7576113b6611377565b5b50565b60008190506113c8826113a6565b919050565b60006113d8826113ba565b9050919050565b6113e8816113cd565b82525050565b6113f78161112e565b82525050565b600060e082019050611412600083018a6110b8565b8181036020830152611424818961133e565b90508181036040830152611438818861133e565b905061144760608301876110b8565b61145460808301866110b8565b61146160a08301856113df565b61146e60c08301846113ee565b98975050505050505050565b600060208201905061148f60008301846113ee565b92915050565b6000806000606084860312156114ae576114ad61104b565b5b60006114bc86828701611076565b93505060206114cd86828701611076565b92505060406114de86828701611076565b9150509250925092565b600080604083850312156114ff576114fe61104b565b5b600061150d85828601611076565b925050602061151e85828601611076565b9150509250929050565b600060608201905061153d60008301866113ee565b61154a60208301856110b8565b61155760408301846110b8565b949350505050565b600080fd5b600080fd5b7f4e487b7100000000000000000000000000000000000000000000000000000000600052604160045260246000fd5b6115a18261132d565b810181811067ffffffffffffffff821117156115c0576115bf611569565b5b80604052505050565b60006115d3611041565b90506115df8282611598565b919050565b600067ffffffffffffffff8211156115ff576115fe611569565b5b6116088261132d565b9050602081019050919050565b82818337600083830152505050565b6000611637611632846115e4565b6115c9565b90508281526020810184848401111561165357611652611564565b5b61165e848285611615565b509392505050565b600082601f83011261167b5761167a61155f565b5b813561168b848260208601611624565b91505092915050565b600080600080608085870312156116ae576116ad61104b565b5b600085013567ffffffffffffffff8111156116cc576116cb611050565b5b6116d887828801611666565b945050602085013567ffffffffffffffff8111156116f9576116f8611050565b5b61170587828801611666565b935050604061171687828801611076565b925050606061172787828801611076565b91505092959194509250565b7f4f6e6c7920746865206d616e616765722063616e20706572666f726d2074686960008201527f7320616374696f6e000000000000000000000000000000000000000000000000602082015250565b600061178f6028836112f2565b915061179a82611733565b604082019050919050565b600060208201905081810360008301526117be81611782565b9050919050565b7f54656e64657220697320636c6f73656400000000000000000000000000000000600082015250565b60006117fb6010836112f2565b9150611806826117c5565b602082019050919050565b6000602082019050818103600083015261182a816117ee565b9050919050565b600060408201905061184660008301856110b8565b61185360208301846113ee565b9392505050565b7f4e487b7100000000000000000000000000000000000000000000000000000000600052602260045260246000fd5b600060028204905060018216806118a157607f821691505b6020821081036118b4576118b361185a565b5b50919050565b7f596f75206861766520616c726561647920706c61636564206120626964000000600082015250565b60006118f0601d836112f2565b91506118fb826118ba565b602082019050919050565b6000602082019050818103600083015261191f816118e3565b9050919050565b600060808201905061193b60008301876110b8565b61194860208301866113ee565b61195560408301856110b8565b61196260608301846110b8565b95945050505050565b7f4e487b7100000000000000000000000000000000000000000000000000000000600052601160045260246000fd5b60006119a582611055565b91507fffffffffffffffffffffffffffffffffffffffffffffffffffffffffffffffff82036119d7576119d661196b565b5b600182019050919050565b60008190508160005260206000209050919050565b60006020601f8301049050919050565b600082821b905092915050565b600060088302611a447fffffffffffffffffffffffffffffffffffffffffffffffffffffffffffffffff82611a07565b611a4e8683611a07565b95508019841693508086168417925050509392505050565b6000819050919050565b6000611a8b611a86611a8184611055565b611a66565b611055565b9050919050565b6000819050919050565b611aa583611a70565b611ab9611ab182611a92565b848454611a14565b825550505050565b600090565b611ace611ac1565b611ad9818484611a9c565b505050565b5b81811015611afd57611af2600082611ac6565b600181019050611adf565b5050565b601f821115611b4257611b13816119e2565b611b1c846119f7565b81016020851015611b2b578190505b611b3f611b37856119f7565b830182611ade565b50505b505050565b600082821c905092915050565b6000611b6560001984600802611b47565b1980831691505092915050565b6000611b7e8383611b54565b9150826002028217905092915050565b611b97826112e7565b67ffffffffffffffff811115611bb057611baf611569565b5b611bba8254611889565b611bc5828285611b01565b600060209050601f831160018114611bf85760008415611be6578287015190505b611bf08582611b72565b865550611c58565b601f198416611c06866119e2565b60005b82811015611c2e57848901518255600182019150602085019450602081019050611c09565b86831015611c4b5784890151611c47601f891682611b54565b8355505b6001600288020188555050505b505050505050565b600060a082019050611c7560008301886110b8565b8181036020830152611c87818761133e565b90508181036040830152611c9b818661133e565b9050611caa60608301856110b8565b611cb760808301846110b8565b9695505050505050565b7f54656e646572206973206e6f7420636c6f736564207965740000000000000000600082015250565b6000611cf76018836112f2565b9150611d0282611cc1565b602082019050919050565b60006020820190508181036000830152611d2681611cea565b9050919050565b7f4e6f20656c696769626c65206269646465727300000000000000000000000000600082015250565b6000611d636013836112f2565b9150611d6e82611d2d565b602082019050919050565b60006020820190508181036000830152611d9281611d56565b9050919050565b7f4e487b7100000000000000000000000000000000000000000000000000000000600052603260045260246000fdfea2646970667358221220c78bb1f91a55a5cd6534360369cb5ba3eb747c0a58075c9900473cc018f56b1464736f6c63430008130033",
  "linkReferences": {},
  "deployedLinkReferences": {}
}