{
  "_format": "hh-sol-artifact-1",
  "contractName": "TenderManagementSystem",
  "sourceName": "contracts/TenderManagementSystem.sol",
  "abi": [
    {
      "inputs": [],
      "stateMutability": "nonpayable",
      "type": "constructor"
    },
    {
      "anonymous": false,
      "inputs": [
        {
          "indexed": false,
          "internalType": "uint256[]",
          "name": "tenderIds",
          "type": "uint256[]"
        }
      ],
      "name": "AllTendersDisplayed",
      "type": "event"
    },
    {
      "anonymous": false,
      "inputs": [
        {
          "indexed": false,
          "internalType": "uint256",
          "name": "tenderId",
          "type": "uint256"
        },
        {
          "indexed": false,
          "internalType": "address",
          "name": "bidder",
          "type": "address"
        },
        {
          "indexed": false,
          "internalType": "uint256",
          "name": "estimatedCompletionTime",
          "type": "uint256"
        },
        {
          "indexed": false,
          "internalType": "uint256",
          "name": "bidAmount",
          "type": "uint256"
        }
      ],
      "name": "BidPlaced",
      "type": "event"
    },
    {
      "anonymous": false,
      "inputs": [
        {
          "indexed": false,
          "internalType": "uint256",
          "name": "id",
          "type": "uint256"
        },
        {
          "indexed": false,
          "internalType": "address",
          "name": "winner",
          "type": "address"
        }
      ],
      "name": "TenderClosed",
      "type": "event"
    },
    {
      "anonymous": false,
      "inputs": [
        {
          "indexed": false,
          "internalType": "uint256",
          "name": "id",
          "type": "uint256"
        },
        {
          "indexed": false,
          "internalType": "string",
          "name": "title",
          "type": "string"
        },
        {
          "indexed": false,
          "internalType": "string",
          "name": "description",
          "type": "string"
        },
        {
          "indexed": false,
          "internalType": "uint256",
          "name": "deadline",
          "type": "uint256"
        },
        {
          "indexed": false,
          "internalType": "uint256",
          "name": "minimumBudget",
          "type": "uint256"
        },
        {
          "indexed": false,
          "internalType": "uint256",
          "name": "estimatedCompletionTime",
          "type": "uint256"
        }
      ],
      "name": "TenderIssued",
      "type": "event"
    },
    {
      "inputs": [
        {
          "internalType": "uint256",
          "name": "",
          "type": "uint256"
        },
        {
          "internalType": "uint256",
          "name": "",
          "type": "uint256"
        }
      ],
      "name": "allBidders",
      "outputs": [
        {
          "internalType": "address",
          "name": "bidder",
          "type": "address"
        },
        {
          "internalType": "uint256",
          "name": "bidAmount",
          "type": "uint256"
        },
        {
          "internalType": "uint256",
          "name": "estimatedCompletionTime",
          "type": "uint256"
        }
      ],
      "stateMutability": "view",
      "type": "function"
    },
    {
      "inputs": [
        {
          "internalType": "uint256",
          "name": "",
          "type": "uint256"
        }
      ],
      "name": "allTenderIds",
      "outputs": [
        {
          "internalType": "uint256",
          "name": "",
          "type": "uint256"
        }
      ],
      "stateMutability": "view",
      "type": "function"
    },
    {
      "inputs": [
        {
          "internalType": "uint256",
          "name": "_tenderId",
          "type": "uint256"
        }
      ],
      "name": "closeTender",
      "outputs": [],
      "stateMutability": "nonpayable",
      "type": "function"
    },
    {
      "inputs": [
        {
          "internalType": "uint256",
          "name": "",
          "type": "uint256"
        },
        {
          "internalType": "uint256",
          "name": "",
          "type": "uint256"
        }
      ],
      "name": "eligibleBidders",
      "outputs": [
        {
          "internalType": "address",
          "name": "bidder",
          "type": "address"
        },
        {
          "internalType": "uint256",
          "name": "bidAmount",
          "type": "uint256"
        },
        {
          "internalType": "uint256",
          "name": "estimatedCompletionTime",
          "type": "uint256"
        }
      ],
      "stateMutability": "view",
      "type": "function"
    },
    {
      "inputs": [
        {
          "internalType": "uint256",
          "name": "",
          "type": "uint256"
        },
        {
          "internalType": "address",
          "name": "",
          "type": "address"
        }
      ],
      "name": "hasBid",
      "outputs": [
        {
          "internalType": "bool",
          "name": "",
          "type": "bool"
        }
      ],
      "stateMutability": "view",
      "type": "function"
    },
    {
      "inputs": [
        {
          "internalType": "string",
          "name": "_title",
          "type": "string"
        },
        {
          "internalType": "string",
          "name": "_description",
          "type": "string"
        },
        {
          "internalType": "uint256",
          "name": "_deadline",
          "type": "uint256"
        },
        {
          "internalType": "uint256",
          "name": "_minimumBudget",
          "type": "uint256"
        },
        {
          "internalType": "uint256",
          "name": "_estimatedCompletionTime",
          "type": "uint256"
        }
      ],
      "name": "issueTender",
      "outputs": [],
      "stateMutability": "nonpayable",
      "type": "function"
    },
    {
      "inputs": [],
      "name": "manager",
      "outputs": [
        {
          "internalType": "address",
          "name": "",
          "type": "address"
        }
      ],
      "stateMutability": "view",
      "type": "function"
    },
    {
      "inputs": [
        {
          "internalType": "uint256",
          "name": "_tenderId",
          "type": "uint256"
        },
        {
          "internalType": "uint256",
          "name": "_estimatedCompletionTime",
          "type": "uint256"
        },
        {
          "internalType": "uint256",
          "name": "_bidAmount",
          "type": "uint256"
        }
      ],
      "name": "placeBid",
      "outputs": [],
      "stateMutability": "nonpayable",
      "type": "function"
    },
    {
      "inputs": [],
      "name": "tenderCount",
      "outputs": [
        {
          "internalType": "uint256",
          "name": "",
          "type": "uint256"
        }
      ],
      "stateMutability": "view",
      "type": "function"
    },
    {
      "inputs": [
        {
          "internalType": "uint256",
          "name": "",
          "type": "uint256"
        }
      ],
      "name": "tenders",
      "outputs": [
        {
          "internalType": "uint256",
          "name": "id",
          "type": "uint256"
        },
        {
          "internalType": "string",
          "name": "title",
          "type": "string"
        },
        {
          "internalType": "string",
          "name": "description",
          "type": "string"
        },
        {
          "internalType": "uint256",
          "name": "deadline",
          "type": "uint256"
        },
        {
          "internalType": "uint256",
          "name": "minimumBudget",
          "type": "uint256"
        },
        {
          "internalType": "uint256",
          "name": "estimatedCompletionTime",
          "type": "uint256"
        },
        {
          "internalType": "enum TenderManagementSystem.TenderStatus",
          "name": "status",
          "type": "uint8"
        },
        {
          "internalType": "address",
          "name": "winner",
          "type": "address"
        }
      ],
      "stateMutability": "view",
      "type": "function"
    },
    {
      "inputs": [
        {
          "internalType": "uint256",
          "name": "_tenderId",
          "type": "uint256"
        }
      ],
      "name": "viewAllBidders",
      "outputs": [
        {
          "components": [
            {
              "internalType": "address",
              "name": "bidder",
              "type": "address"
            },
            {
              "internalType": "uint256",
              "name": "bidAmount",
              "type": "uint256"
            },
            {
              "internalType": "uint256",
              "name": "estimatedCompletionTime",
              "type": "uint256"
            }
          ],
          "internalType": "struct TenderManagementSystem.Bid[]",
          "name": "",
          "type": "tuple[]"
        }
      ],
      "stateMutability": "view",
      "type": "function"
    },
    {
      "inputs": [],
      "name": "viewAllTenders",
      "outputs": [
        {
          "internalType": "uint256[]",
          "name": "",
          "type": "uint256[]"
        },
        {
          "components": [
            {
              "internalType": "uint256",
              "name": "id",
              "type": "uint256"
            },
            {
              "internalType": "string",
              "name": "title",
              "type": "string"
            },
            {
              "internalType": "string",
              "name": "description",
              "type": "string"
            },
            {
              "internalType": "uint256",
              "name": "deadline",
              "type": "uint256"
            },
            {
              "internalType": "uint256",
              "name": "minimumBudget",
              "type": "uint256"
            },
            {
              "internalType": "uint256",
              "name": "estimatedCompletionTime",
              "type": "uint256"
            },
            {
              "internalType": "enum TenderManagementSystem.TenderStatus",
              "name": "status",
              "type": "uint8"
            },
            {
              "internalType": "address",
              "name": "winner",
              "type": "address"
            }
          ],
          "internalType": "struct TenderManagementSystem.Tender[]",
          "name": "",
          "type": "tuple[]"
        }
      ],
      "stateMutability": "view",
      "type": "function"
    },
    {
      "inputs": [
        {
          "internalType": "uint256",
          "name": "_tenderId",
          "type": "uint256"
        }
      ],
      "name": "viewEligibleBidders",
      "outputs": [
        {
          "components": [
            {
              "internalType": "address",
              "name": "bidder",
              "type": "address"
            },
            {
              "internalType": "uint256",
              "name": "bidAmount",
              "type": "uint256"
            },
            {
              "internalType": "uint256",
              "name": "estimatedCompletionTime",
              "type": "uint256"
            }
          ],
          "internalType": "struct TenderManagementSystem.Bid[]",
          "name": "",
          "type": "tuple[]"
        }
      ],
      "stateMutability": "view",
      "type": "function"
    }
  ],
  "bytecode": "0x608060405234801561001057600080fd5b50336000806101000a81548173ffffffffffffffffffffffffffffffffffffffff021916908373ffffffffffffffffffffffffffffffffffffffff16021790555061253c806100606000396000f3fe608060405234801561001057600080fd5b50600436106100ce5760003560e01c80635e62be251161008c578063a798af7811610066578063a798af7814610240578063ac0302511461025f578063c06fdcc61461027b578063e7ac32c9146102ab576100ce565b80635e62be25146101c2578063810374aa146101de578063a70f50591461020e576100ce565b8062cda3da146100d35780631f058776146100ef57806327224eb21461010d578063449e88121461013d578063465e1def1461016d578063481c6a75146101a4575b600080fd5b6100ed60048036038101906100e891906114e0565b6102dd565b005b6100f76104e7565b604051610104919061151c565b60405180910390f35b610127600480360381019061012291906114e0565b6104ed565b6040516101349190611678565b60405180910390f35b610157600480360381019061015291906116c6565b6105c9565b6040516101649190611721565b60405180910390f35b610187600480360381019061018291906114e0565b6105f8565b60405161019b989796959493929190611852565b60405180910390f35b6101ac61077d565b6040516101b991906118de565b60405180910390f35b6101dc60048036038101906101d791906118f9565b6107a1565b005b6101f860048036038101906101f391906114e0565b610b22565b604051610205919061151c565b60405180910390f35b6102286004803603810190610223919061194c565b610b46565b6040516102379392919061198c565b60405180910390f35b610248610bad565b604051610256929190611c44565b60405180910390f35b61027960048036038101906102749190611db0565b610ebe565b005b610295600480360381019061029091906114e0565b61106a565b6040516102a29190611678565b60405180910390f35b6102c560048036038101906102c0919061194c565b611146565b6040516102d49392919061198c565b60405180910390f35b60008054906101000a900473ffffffffffffffffffffffffffffffffffffffff1673ffffffffffffffffffffffffffffffffffffffff163373ffffffffffffffffffffffffffffffffffffffff161461036b576040517f08c379a000000000000000000000000000000000000000000000000000000000815260040161036290611ed5565b60405180910390fd5b80600060018111156103805761037f6117cc565b5b6003600083815260200190815260200160002060060160009054906101000a900460ff1660018111156103b6576103b56117cc565b5b146103f6576040517f08c379a00000000000000000000000000000000000000000000000000000000081526004016103ed90611f41565b60405180910390fd5b600060036000848152602001908152602001600020905060018160060160006101000a81548160ff02191690836001811115610435576104346117cc565b5b0217905550610443836111ad565b8160060160016101000a81548173ffffffffffffffffffffffffffffffffffffffff021916908373ffffffffffffffffffffffffffffffffffffffff1602179055507f1ff2afa711f8674f62f22f82dc0ba97e8f41945fe87c2a15e8a294537e75cf29838260060160019054906101000a900473ffffffffffffffffffffffffffffffffffffffff166040516104da929190611f61565b60405180910390a1505050565b60015481565b606060056000838152602001908152602001600020805480602002602001604051908101604052809291908181526020016000905b828210156105be57838290600052602060002090600302016040518060600160405290816000820160009054906101000a900473ffffffffffffffffffffffffffffffffffffffff1673ffffffffffffffffffffffffffffffffffffffff1673ffffffffffffffffffffffffffffffffffffffff1681526020016001820154815260200160028201548152505081526020019060010190610522565b505050509050919050565b60046020528160005260406000206020528060005260406000206000915091509054906101000a900460ff1681565b600360205280600052604060002060009150905080600001549080600101805461062190611fb9565b80601f016020809104026020016040519081016040528092919081815260200182805461064d90611fb9565b801561069a5780601f1061066f5761010080835404028352916020019161069a565b820191906000526020600020905b81548152906001019060200180831161067d57829003601f168201915b5050505050908060020180546106af90611fb9565b80601f01602080910402602001604051908101604052809291908181526020018280546106db90611fb9565b80156107285780601f106106fd57610100808354040283529160200191610728565b820191906000526020600020905b81548152906001019060200180831161070b57829003601f168201915b5050505050908060030154908060040154908060050154908060060160009054906101000a900460ff16908060060160019054906101000a900473ffffffffffffffffffffffffffffffffffffffff16905088565b60008054906101000a900473ffffffffffffffffffffffffffffffffffffffff1681565b82600060018111156107b6576107b56117cc565b5b6003600083815260200190815260200160002060060160009054906101000a900460ff1660018111156107ec576107eb6117cc565b5b1461082c576040517f08c379a000000000000000000000000000000000000000000000000000000000815260040161082390611f41565b60405180910390fd5b6004600085815260200190815260200160002060003373ffffffffffffffffffffffffffffffffffffffff1673ffffffffffffffffffffffffffffffffffffffff16815260200190815260200160002060009054906101000a900460ff16156108ca576040517f08c379a00000000000000000000000000000000000000000000000000000000081526004016108c190612036565b60405180910390fd5b7f51db8e23b3f4479b162fd48823b8402895442b8f6cfd94f66239391881ec7b6f843385856040516108ff9493929190612056565b60405180910390a1600060405180606001604052803373ffffffffffffffffffffffffffffffffffffffff1681526020018481526020018581525090506006600086815260200190815260200160002081908060018154018082558091505060019003906000526020600020906003020160009091909190915060008201518160000160006101000a81548173ffffffffffffffffffffffffffffffffffffffff021916908373ffffffffffffffffffffffffffffffffffffffff1602179055506020820151816001015560408201518160020155505060036000868152602001908152602001600020600401548310158015610a12575060036000868152602001908152602001600020600501548410155b15610ab2576005600086815260200190815260200160002081908060018154018082558091505060019003906000526020600020906003020160009091909190915060008201518160000160006101000a81548173ffffffffffffffffffffffffffffffffffffffff021916908373ffffffffffffffffffffffffffffffffffffffff160217905550602082015181600101556040820151816002015550505b60016004600087815260200190815260200160002060003373ffffffffffffffffffffffffffffffffffffffff1673ffffffffffffffffffffffffffffffffffffffff16815260200190815260200160002060006101000a81548160ff0219169083151502179055505050505050565b60028181548110610b3257600080fd5b906000526020600020016000915090505481565b60056020528160005260406000208181548110610b6257600080fd5b9060005260206000209060030201600091509150508060000160009054906101000a900473ffffffffffffffffffffffffffffffffffffffff16908060010154908060020154905083565b60608060006002805480602002602001604051908101604052809291908181526020018280548015610bfe57602002820191906000526020600020905b815481526020019060010190808311610bea575b505050505090506000815167ffffffffffffffff811115610c2257610c21611c85565b5b604051908082528060200260200182016040528015610c5b57816020015b610c48611429565b815260200190600190039081610c405790505b50905060005b8251811015610eb15760036000848381518110610c8157610c8061209b565b5b602002602001015181526020019081526020016000206040518061010001604052908160008201548152602001600182018054610cbd90611fb9565b80601f0160208091040260200160405190810160405280929190818152602001828054610ce990611fb9565b8015610d365780601f10610d0b57610100808354040283529160200191610d36565b820191906000526020600020905b815481529060010190602001808311610d1957829003601f168201915b50505050508152602001600282018054610d4f90611fb9565b80601f0160208091040260200160405190810160405280929190818152602001828054610d7b90611fb9565b8015610dc85780601f10610d9d57610100808354040283529160200191610dc8565b820191906000526020600020905b815481529060010190602001808311610dab57829003601f168201915b505050505081526020016003820154815260200160048201548152602001600582015481526020016006820160009054906101000a900460ff166001811115610e1457610e136117cc565b5b6001811115610e2657610e256117cc565b5b81526020016006820160019054906101000a900473ffffffffffffffffffffffffffffffffffffffff1673ffffffffffffffffffffffffffffffffffffffff1673ffffffffffffffffffffffffffffffffffffffff1681525050828281518110610e9357610e9261209b565b5b60200260200101819052508080610ea9906120f9565b915050610c61565b5081819350935050509091565b60008054906101000a900473ffffffffffffffffffffffffffffffffffffffff1673ffffffffffffffffffffffffffffffffffffffff163373ffffffffffffffffffffffffffffffffffffffff1614610f4c576040517f08c379a0000000000000000000000000000000000000000000000000000000008152600401610f4390611ed5565b60405180910390fd5b60016000815480929190610f5f906120f9565b919050555060006003600060015481526020019081526020016000209050600154816000018190555085816001019081610f9991906122ed565b5084816002019081610fab91906122ed565b5083816003018190555081816005018190555082816004018190555060008160060160006101000a81548160ff02191690836001811115610fef57610fee6117cc565b5b0217905550600260015490806001815401808255809150506001900390600052602060002001600090919091909150557fcbd33b8432aa41808e08c0e6e6184536d4ddf08dc41000d4933a90d170e33f7e600154878787878760405161105a969594939291906123bf565b60405180910390a1505050505050565b606060066000838152602001908152602001600020805480602002602001604051908101604052809291908181526020016000905b8282101561113b57838290600052602060002090600302016040518060600160405290816000820160009054906101000a900473ffffffffffffffffffffffffffffffffffffffff1673ffffffffffffffffffffffffffffffffffffffff1673ffffffffffffffffffffffffffffffffffffffff168152602001600182015481526020016002820154815250508152602001906001019061109f565b505050509050919050565b6006602052816000526040600020818154811061116257600080fd5b9060005260206000209060030201600091509150508060000160009054906101000a900473ffffffffffffffffffffffffffffffffffffffff16908060010154908060020154905083565b60006001808111156111c2576111c16117cc565b5b6003600084815260200190815260200160002060060160009054906101000a900460ff1660018111156111f8576111f76117cc565b5b14611238576040517f08c379a000000000000000000000000000000000000000000000000000000000815260040161122f9061247a565b60405180910390fd5b600060056000848152602001908152602001600020805480602002602001604051908101604052809291908181526020016000905b8282101561130957838290600052602060002090600302016040518060600160405290816000820160009054906101000a900473ffffffffffffffffffffffffffffffffffffffff1673ffffffffffffffffffffffffffffffffffffffff1673ffffffffffffffffffffffffffffffffffffffff168152602001600182015481526020016002820154815250508152602001906001019061126d565b5050505090506000815111611353576040517f08c379a000000000000000000000000000000000000000000000000000000000815260040161134a906124e6565b60405180910390fd5b6000807fffffffffffffffffffffffffffffffffffffffffffffffffffffffffffffffff905060007fffffffffffffffffffffffffffffffffffffffffffffffffffffffffffffffff905060005b845181101561141c5760008582815181106113bf576113be61209b565b5b6020026020010151905083816020015110806113ed57508381602001511480156113ec5750828160400151105b5b15611408578060000151945080602001519350806040015192505b508080611414906120f9565b9150506113a1565b5082945050505050919050565b60405180610100016040528060008152602001606081526020016060815260200160008152602001600081526020016000815260200160006001811115611473576114726117cc565b5b8152602001600073ffffffffffffffffffffffffffffffffffffffff1681525090565b6000604051905090565b600080fd5b600080fd5b6000819050919050565b6114bd816114aa565b81146114c857600080fd5b50565b6000813590506114da816114b4565b92915050565b6000602082840312156114f6576114f56114a0565b5b6000611504848285016114cb565b91505092915050565b611516816114aa565b82525050565b6000602082019050611531600083018461150d565b92915050565b600081519050919050565b600082825260208201905092915050565b6000819050602082019050919050565b600073ffffffffffffffffffffffffffffffffffffffff82169050919050565b600061158e82611563565b9050919050565b61159e81611583565b82525050565b6115ad816114aa565b82525050565b6060820160008201516115c96000850182611595565b5060208201516115dc60208501826115a4565b5060408201516115ef60408501826115a4565b50505050565b600061160183836115b3565b60608301905092915050565b6000602082019050919050565b600061162582611537565b61162f8185611542565b935061163a83611553565b8060005b8381101561166b57815161165288826115f5565b975061165d8361160d565b92505060018101905061163e565b5085935050505092915050565b60006020820190508181036000830152611692818461161a565b905092915050565b6116a381611583565b81146116ae57600080fd5b50565b6000813590506116c08161169a565b92915050565b600080604083850312156116dd576116dc6114a0565b5b60006116eb858286016114cb565b92505060206116fc858286016116b1565b9150509250929050565b60008115159050919050565b61171b81611706565b82525050565b60006020820190506117366000830184611712565b92915050565b600081519050919050565b600082825260208201905092915050565b60005b8381101561177657808201518184015260208101905061175b565b60008484015250505050565b6000601f19601f8301169050919050565b600061179e8261173c565b6117a88185611747565b93506117b8818560208601611758565b6117c181611782565b840191505092915050565b7f4e487b7100000000000000000000000000000000000000000000000000000000600052602160045260246000fd5b6002811061180c5761180b6117cc565b5b50565b600081905061181d826117fb565b919050565b600061182d8261180f565b9050919050565b61183d81611822565b82525050565b61184c81611583565b82525050565b600061010082019050611868600083018b61150d565b818103602083015261187a818a611793565b9050818103604083015261188e8189611793565b905061189d606083018861150d565b6118aa608083018761150d565b6118b760a083018661150d565b6118c460c0830185611834565b6118d160e0830184611843565b9998505050505050505050565b60006020820190506118f36000830184611843565b92915050565b600080600060608486031215611912576119116114a0565b5b6000611920868287016114cb565b9350506020611931868287016114cb565b9250506040611942868287016114cb565b9150509250925092565b60008060408385031215611963576119626114a0565b5b6000611971858286016114cb565b9250506020611982858286016114cb565b9150509250929050565b60006060820190506119a16000830186611843565b6119ae602083018561150d565b6119bb604083018461150d565b949350505050565b600081519050919050565b600082825260208201905092915050565b6000819050602082019050919050565b60006119fb83836115a4565b60208301905092915050565b6000602082019050919050565b6000611a1f826119c3565b611a2981856119ce565b9350611a34836119df565b8060005b83811015611a65578151611a4c88826119ef565b9750611a5783611a07565b925050600181019050611a38565b5085935050505092915050565b600081519050919050565b600082825260208201905092915050565b6000819050602082019050919050565b600082825260208201905092915050565b6000611aba8261173c565b611ac48185611a9e565b9350611ad4818560208601611758565b611add81611782565b840191505092915050565b611af181611822565b82525050565b600061010083016000830151611b1060008601826115a4565b5060208301518482036020860152611b288282611aaf565b91505060408301518482036040860152611b428282611aaf565b9150506060830151611b5760608601826115a4565b506080830151611b6a60808601826115a4565b5060a0830151611b7d60a08601826115a4565b5060c0830151611b9060c0860182611ae8565b5060e0830151611ba360e0860182611595565b508091505092915050565b6000611bba8383611af7565b905092915050565b6000602082019050919050565b6000611bda82611a72565b611be48185611a7d565b935083602082028501611bf685611a8e565b8060005b85811015611c325784840389528151611c138582611bae565b9450611c1e83611bc2565b925060208a01995050600181019050611bfa565b50829750879550505050505092915050565b60006040820190508181036000830152611c5e8185611a14565b90508181036020830152611c728184611bcf565b90509392505050565b600080fd5b600080fd5b7f4e487b7100000000000000000000000000000000000000000000000000000000600052604160045260246000fd5b611cbd82611782565b810181811067ffffffffffffffff82111715611cdc57611cdb611c85565b5b80604052505050565b6000611cef611496565b9050611cfb8282611cb4565b919050565b600067ffffffffffffffff821115611d1b57611d1a611c85565b5b611d2482611782565b9050602081019050919050565b82818337600083830152505050565b6000611d53611d4e84611d00565b611ce5565b905082815260208101848484011115611d6f57611d6e611c80565b5b611d7a848285611d31565b509392505050565b600082601f830112611d9757611d96611c7b565b5b8135611da7848260208601611d40565b91505092915050565b600080600080600060a08688031215611dcc57611dcb6114a0565b5b600086013567ffffffffffffffff811115611dea57611de96114a5565b5b611df688828901611d82565b955050602086013567ffffffffffffffff811115611e1757611e166114a5565b5b611e2388828901611d82565b9450506040611e34888289016114cb565b9350506060611e45888289016114cb565b9250506080611e56888289016114cb565b9150509295509295909350565b7f4f6e6c7920746865206d616e616765722063616e20706572666f726d2074686960008201527f7320616374696f6e000000000000000000000000000000000000000000000000602082015250565b6000611ebf602883611747565b9150611eca82611e63565b604082019050919050565b60006020820190508181036000830152611eee81611eb2565b9050919050565b7f54656e64657220697320636c6f73656400000000000000000000000000000000600082015250565b6000611f2b601083611747565b9150611f3682611ef5565b602082019050919050565b60006020820190508181036000830152611f5a81611f1e565b9050919050565b6000604082019050611f76600083018561150d565b611f836020830184611843565b9392505050565b7f4e487b7100000000000000000000000000000000000000000000000000000000600052602260045260246000fd5b60006002820490506001821680611fd157607f821691505b602082108103611fe457611fe3611f8a565b5b50919050565b7f596f75206861766520616c726561647920706c61636564206120626964000000600082015250565b6000612020601d83611747565b915061202b82611fea565b602082019050919050565b6000602082019050818103600083015261204f81612013565b9050919050565b600060808201905061206b600083018761150d565b6120786020830186611843565b612085604083018561150d565b612092606083018461150d565b95945050505050565b7f4e487b7100000000000000000000000000000000000000000000000000000000600052603260045260246000fd5b7f4e487b7100000000000000000000000000000000000000000000000000000000600052601160045260246000fd5b6000612104826114aa565b91507fffffffffffffffffffffffffffffffffffffffffffffffffffffffffffffffff8203612136576121356120ca565b5b600182019050919050565b60008190508160005260206000209050919050565b60006020601f8301049050919050565b600082821b905092915050565b6000600883026121a37fffffffffffffffffffffffffffffffffffffffffffffffffffffffffffffffff82612166565b6121ad8683612166565b95508019841693508086168417925050509392505050565b6000819050919050565b60006121ea6121e56121e0846114aa565b6121c5565b6114aa565b9050919050565b6000819050919050565b612204836121cf565b612218612210826121f1565b848454612173565b825550505050565b600090565b61222d612220565b6122388184846121fb565b505050565b5b8181101561225c57612251600082612225565b60018101905061223e565b5050565b601f8211156122a15761227281612141565b61227b84612156565b8101602085101561228a578190505b61229e61229685612156565b83018261223d565b50505b505050565b600082821c905092915050565b60006122c4600019846008026122a6565b1980831691505092915050565b60006122dd83836122b3565b9150826002028217905092915050565b6122f68261173c565b67ffffffffffffffff81111561230f5761230e611c85565b5b6123198254611fb9565b612324828285612260565b600060209050601f8311600181146123575760008415612345578287015190505b61234f85826122d1565b8655506123b7565b601f19841661236586612141565b60005b8281101561238d57848901518255600182019150602085019450602081019050612368565b868310156123aa57848901516123a6601f8916826122b3565b8355505b6001600288020188555050505b505050505050565b600060c0820190506123d4600083018961150d565b81810360208301526123e68188611793565b905081810360408301526123fa8187611793565b9050612409606083018661150d565b612416608083018561150d565b61242360a083018461150d565b979650505050505050565b7f54656e646572206973206e6f7420636c6f736564207965740000000000000000600082015250565b6000612464601883611747565b915061246f8261242e565b602082019050919050565b6000602082019050818103600083015261249381612457565b9050919050565b7f4e6f20656c696769626c65206269646465727300000000000000000000000000600082015250565b60006124d0601383611747565b91506124db8261249a565b602082019050919050565b600060208201905081810360008301526124ff816124c3565b905091905056fea264697066735822122007177e89dc352bdeb31b54563c1b6512606559265282ff8a15c9b3ec70c296fc64736f6c63430008130033",
  "linkReferences": {},
  "deployedLinkReferences": {}
}